:0600000002006B020A0978
:03000B00020C8E56
:03001300020A5C82
:01001B0032B2
:030023000209715E
:03002B00020E6E54
:01003300329A
:03003B00020AAF07
:030043000209327D
:01004B003282
:030053000209BDE2
:01005B003272
:03006300020E6C1E
:03006600020B0387
:02006900E4733E
:0D006B0075812D121020E5826003020066F1
:10007800791FE94400601B7A019012E478DE75A0CC
:1000880000E493F2A308B8000205A0D9F4DAF275E7
:02009800A0FFC7
:06009A00E478FFF6D8FD3A
:1000A0007800E84400600A799475A000E4F309D868
:1000B000FC784AE84400600C7901900094E4F0A3D5
:0400C000D8FCD9FA95
:0E00C4007808E4F608F608F608F6780C7600E0
:0200D200C20268
:0200D400C20365
:0300D600020066BF
:1000DA0012011E9000997402F075820F020B1275BC
:1000EA00820F120BC9AF82900094EFB40100E4337F
:1000FA00F09000E0E0FF900094E0FEEFB5060122E8
:10010A009000E0EEF0EE600675820A0201B6758292
:04011A000A0202745F
:10011E001208EE12091812090775DD0075D3007565
:10012E00D5002275D30074FC55D24402F5D290004E
:10013E00E3E4F022A2DE22900098E07003F5822222
:10014E007E007F009000E3E060200EBE00010F9065
:10015E000005C007C006120DFCD006D007C3EE94F2
:10016E0050EF94C340DE758200227F00BF0800501E
:10017E00278F057E0074402DFDE43EFEED240AFD22
:10018E00EE3400FEEF24E4F582E43400F583E0FC67
:10019E008D828E83F00F80D475D3089000E37401A6
:1001AE00F053D2FC75820122AF82BF880040088FC7
:1001BE0006EE2478FE8042BF800040239000E4E0EB
:1001CE00FD8F04EC2480F5F005F07401800225E02B
:1001DE00D5F0FBFC42059000E4EDF07E00801AEFB6
:1001EE0090111193FE7003F58222EE30E70B900012
:1001FE00E4E04402FFF053067F9000E6E0FFB50610
:10020E0002805C9000E7E0FFB5060280529000E8A5
:10021E00E0FFB5060280489000E9E0FFB5060280D7
:10022E003E9000EAE0FFB5060280349000EBE0FF5E
:10023E00B50602802A7F027D02ED24E4FBE4340041
:10024E00FC8B828C83E070088B828C83EEF08008AE
:10025E000D8D07BD080040E1BF0804758200221213
:10026E00014575820122AF82BF880040088F06EEDD
:10027E002478FE8043BF800040249000E4E0FD8F90
:10028E0004EC2480F5F005F07401800225E0D5F031
:10029E00FBF4FC52059000E4EDF07E00801AEF9026
:1002AE00111193FE7003F58222EE30E70B9000E4FD
:1002BE00E054FDFFF053067F7F02EE6016EF24E45C
:1002CE00FCE43400FD8C828D83E0B506068C828DB5
:1002DE0083E4F00FBF080040E11201457582012250
:1002EE007F00BF0800500FEF24E4F582E43400F5E0
:1002FE0083E4F00F80EC020145AF82C0071201B615
:10030E00AE82D0078F82C006120274D0068E822271
:10031E00AFF0AE83E582900095F0EEA3F0EFA3F080
:10032E00900095E0FDA3E0FEA3E0FF8D828E838F0B
:10033E00F0120EE8FCA3AD82AE83900095EDF0EEC8
:10034E00A3F0EFA3F0ECFB60138B82C007C006C0D6
:10035E0005120307D005D006D00780CF900095ED8B
:0F036E00F0EEA3F0EFA3F0229000EEE0F5822274
:10037E00AFDBBF08028003020779900007E0FE7F23
:10038E0000900006E0FD7C004FF510EC4EF5117F5D
:10039E0000900001E0F5129000ECE4F0900000E017
:1003AE00FE54606067900000E0FE5306607D00BE64
:1003BE002005BD0002800BBE404DBD004A7FFF02EE
:1003CE00077B7401B5120302077B7403B51202801A
:1003DE00177409B5120302077B740AB512030207DC
:1003EE007B740BB5121C800E9000EDE0FE900000A9
:1003FE00F07F0102077B900002E0FE9000EDF0021C
:10040E00077B7FFF02077B7FFF02077BE51224F449
:10041E005003020775E512240B83F582E5122410B2
:10042E0083F583E47357857545754F4B755C797B02
:10043E007B07050706070504070505070790000358
:10044E00E0FEBE01028011BE02028016BE030280D3
:10045E001BBE2202806380797513917514117F1271
:10046E0080717513A37514117F228067900002E0CE
:10047E0070087513087514128034900002E0FEBEE9
:10048E0001087513367514128024900002E0FEBE2A
:10049E0002087513207514128014900002E0FEBE3F
:1004AE00030875130C75141280047FFF80258513C5
:1004BE0082851483E493FF801A900002E0700E751B
:1004CE0013C57514119011BCE493FF80067FFF8055
:1004DE00027FFFBFFF0302077B8F057E00C3ED95F2
:1004EE0010EE951150048D108E11AD10AE11C3ED9E
:1004FE009408EE9400920040067B087C008004ABCA
:10050E0010AC118B077C00C3EC9F50198C027B0042
:10051E00EC2513F582E43514F583E493F98A828B86
:10052E0083F00C80E28F037C00EDC39BFDEE9CFEFE
:10053E008D108E11EF2513F513E43514F514020703
:10054E007B900002E0FE8E1075110002077B90007A
:10055E0098E0900000F0AD10AE11C3ED9401EE9452
:10056E0000500302077B7F0102077B900002E0FE32
:10057E00900098F002077B900000E0541F702F90BF
:10058E000003E0FD7E00900002E0FC7B004206EBE3
:10059E004205BE0114BD00119011AAE493FE30E590
:1005AE000302077B7FFF02077B7FFF02077B900022
:1005BE0000E0FE53061F7D00BE0277BD0074900062
:1005CE0004E0FEBE0102805FBE02028049BE03024D
:1005DE008033BE0402801DBE81028040BE82028036
:1005EE002ABE83028014BE844474BC55DE4402F5D8
:1005FE00DE02077B53DE7302077B74BC55D64402C2
:10060E00F5D602077B53D67302077B74BC55D444D0
:10061E0002F5D402077B53D47302077B74BC55D208
:10062E004402F5D202077B53D27302077B7FFF028F
:10063E00077B7FFF02077B900000E0541F702F9016
:10064E000003E0FD7E00900002E0FC7B004206EB22
:10065E004205BE0114BD00119011AAE493FE30E5CF
:10066E000302077B7FFF02077B7FFF02077B900061
:10067E0000E0FE53061F7D00BE0205BD0002800392
:10068E00020753900003E0FD7E00900002E0FC7B29
:10069E00004206EB4205EE4D600302074F90000547
:1006AE00E0FD7E00900004E0FC7B004206EB42057C
:1006BE00BE0106BD0003020743BE0205BD00028057
:1006CE0060BE0305BD00028044BE0405BD0002806D
:1006DE0028BE8105BD00028052BE8205BD0002808B
:1006EE0036BE8305BD0002801ABE8451BD004E7415
:1006FE00BF55DE4403F5DE8074747F55DE440CF581
:10070E00DE806A74BF55D64403F5D68060747F557B
:10071E00D6440CF5D6805674BF55D44403F5D48018
:10072E004C747F55D4440CF5D4804274BF55D244DA
:10073E0003F5D28038747F55D2440CF5D27FFF80FA
:10074E002C7FFF80287FFF8024900000E4F0900033
:10075E0001F0AD10AE11C3ED9402EE940040047F93
:10076E0002800AAF1080067FFF80027FFFBFFF0767
:10077E007512FF75DCCF22EF24F740068FDD75DC96
:10078E00C02275DD0075DCC0227405B51202805DD5
:10079E007406B51266AE10AF11C3EE9408EF940056
:1007AE00920140067C087D008004AC10AD117D00E6
:1007BE00C3ED9C50198D027B00ED2513F582E435B7
:1007CE0014F583E493F98A828B83F00D80E28C0317
:1007DE007D00EEC39BFEEF9DFF8E108F11EC251357
:1007EE00F513E43514F5148CDD63DC4022E5E35497
:1007FE0080FFE5104FF5E375DC022275DD0075DC38
:10080E0002227409B51209900000E0FF9000EEF08C
:10081E0075DD0063DC802220D9030208CAE5D954B5
:10082E000FFFADD95305307E00BD0005BE0002801E
:10083E001BBD1005BE00028035BD2005BE00028026
:10084E0042BD3005BE000280590208C8EF24FB509D
:10085E00030208C8EF2F900868738008800B805A37
:10086E00805880561208108051120142804CEF249D
:10087E00FB4047EF2F90088773803F803D803B8081
:10088E00398037EF24FB4032EF2F90089C7380089D
:10089E00800B802680248022120797801D12013142
:1008AE008018EF24FB4013EF2F9008BB7380088055
:1008BE000980078005800312037EC2D930D81475D3
:1008CE00DC0275D21275E300C2DAC2D9C2D890002A
:1008DE0098E4F010DA0122E5DA20E20375D8FF225F
:1008EE0075E20053E27F43E22975E30053E2BF5302
:1008FE00D1FB75D18043D1012243E10443E1024390
:10090E00E10143D81FD2EAD2AF227E007F008EECE7
:10091E008FED7E0A7F008EEE8FEF75D21275EAC0D4
:04092E0075DC022250
:10093200C021C0E0C0F0C082C083C007C006C005AD
:10094200C004C003C002C001C000C0D075D00012F4
:100952000825D0D0D000D001D002D003D004D005D9
:10096200D006D007D083D082D0F0D0E0D02132C0E0
:1009720021C0E0C0F0C082C083C007C006C005C06D
:1009820004C003C002C001C000C0D075D0003098BE
:1009920005120F04C298309905120F44C299D0D0A3
:1009A200D000D001D002D003D004D005D006D007A9
:1009B200D083D082D0F0D0E0D02132C021C0E0C0BC
:1009C200F0C082C083C007C006C005C004C003C017
:1009D20002C001C000C0D075D00030C005120F9215
:1009E200C2C030C105120FD2C2C1D0D0D000D001D6
:1009F200D002D003D004D005D006D007D083D08255
:100A0200D0F0D0E0D02132C021C0E0C0F0C082C01E
:100A120083C007C006C005C004C003C002C001C035
:100A220000C0D075D0009000F1E0FEA3E0FFC00747
:100A3200C0068E828F83120069D006D007D0D0D034
:100A420000D001D002D003D004D005D006D007D008
:100A520083D082D0F0D0E0D02132C021C0E0C0F0FB
:100A6200C082C083C007C006C005C004C003C00264
:100A7200C001C000C0D075D0009000F3E0FEA3E03A
:100A8200FFC007C0068E828F83120069D006D0078E
:100A9200D0D0D000D001D002D003D004D005D006EF
:100AA200D007D083D082D0F0D0E0D02132C021C094
:100AB200E0C0F0C082C083C007C006C005C004C049
:100AC20003C002C001C000C0D075D0009000EFE0AA
:100AD200FEA3E04E600E9000EFE0F8A3E0F58388FD
:100AE20082120069D0D0D000D001D002D003D0044D
:100AF200D005D006D007D083D082D0F0D0E0D0216C
:100B020032120E371200DA1200E980FB75820022DF
:100B1200E582FF90129493FEEF90126C93FF7001A6
:100B220022900099E0FD701BBF0209EEF4FC529284
:100B3200EC529322BF0402800122EEF4FC5296ECA6
:100B4200529722BD0214BF0207EE4292EE42932256
:100B5200BF0439EE4296EE429722BD0116BF02084B
:100B6200EEF45292EE429322BF0421EEF45296EE3C
:100B7200429722BD0316BF0208EE4292EEF4529350
:100B820022BF0408EE4296EEF4FE529722AF82BFD5
:100B92000102800FBF02028013BF03028017BF044D
:100BA20025801BE5C620E21E539DFB22E5C620E3FD
:100BB20015539DF722E5C630E20C539DFB22E5C694
:100BC20030E303539DF722E582FF90124493FEEF38
:100BD20090129493FDEF90126C93FF7003F58222B2
:100BE200EE600D8E82C007C005120B8FD005D007B4
:100BF2007E00BF0202800ABF03028009BF040C808C
:100C020008AE908006AEA08002AEB0ED5E600475C4
:100C120082012275820022E582FF90124493FEEF48
:100C220090129493FDEF90126C93FFEE600D8E8202
:100C3200C007C005120B8FD005D007A2AFE433FE68
:100C4200C2AFBF0202800ABF03028017BF04368010
:100C52002490009AE07007EDF4FF52908027ED4255
:100C620090802290009AE07007EDF4FF52A0801568
:100C7200ED42A0801090009AE07007EDF4FF52B0B0
:0B0C82008003ED42B0EE6002D2AF2212
:100C8E00C0D075D00808B8000D09B900090ABA001D
:100C9E00050BBB00010CD0D032A2AFC2AFA808A981
:100CAE0009AA0AAB0BAC8A8588F092AF30F51274A4
:100CBE00012C600D08B8000909B900050ABA000137
:100CCE000BC3EC9406FCECC313FC75F07DE8A4F8A2
:100CDE00ADF075F07DE9A42DF9E435F0FD75F07DEC
:100CEE00EAA42DFAE435F0FD75F07DEBA42DFB7D25
:100CFE0000EC28F582E93DF583EA3DF5F0EB3D2267
:100D0E00A2AFC2AFA808A909AA0AAB0BAC0C92AF4E
:100D1E0075F020E8A4A8F075F020E9A428F582A8C3
:100D2E00F075F020EAA428F583A8F075F020EBA466
:100D3E0028F9A8F075F020ECA42889F022858222EB
:100D4E0085832385F024F525120CA78582268583BD
:100D5E002785F028F529E5224523452445257001F0
:100D6E0022A822A923AA24AB2585262A85272B85EE
:100D7E00282C85292DE8494A4B60DBC003C002C0F0
:100D8E0001C000120CA7AC82AD83AEF0FFD000D034
:100D9E0001D002D003ECC3952AFCED952BFDEE9508
:100DAE002CFEEF952DFFC3EC94E8ED9403EE94002A
:100DBE00EF940040A118B8FF0919B9FF051ABAFF40
:100DCE00011B882289238A248B2574E8252AF52A7B
:100DDE007403352BF52BE4352CF52CE4352DF52D40
:100DEE00852A26852B27852C28852D298087AE825E
:100DFE00AF83C374019EE49F40022200C374029E1F
:100E0E00FE74009FFF00BE0005BF0002002200001E
:100E1E000000000000000000000000000000000EB6
:100E2E00BE00EB0FBF00ED002275A15575A1AA748F
:100E3E00F855B94406F5B975A100901388120DFC4A
:100E4E00759E5D759D0074F055894402F58953C9F0
:0D0E5E00EF758C06C28DD2A9D28CD2AF22C6
:010E6C003253
:010E6E003251
:100E700022AF82BF0200503EEF75F002A424F1FDC4
:100E8000740035F0FE90009BE0FBA3E0FC8D828EA9
:100E900083EBF0ECA3F0BF00028005BF0118800BCC
:100EA00090009DE024FF9288D2A82290009DE0FF50
:100EB00024FF928AD2AA22AF82BF02005028BF002C
:100EC000028005BF01088004C2A88002C2AAEF7593
:100ED000F002A424F1FE740035F0FF8E828F83743B
:070EE00070F0740EA3F02274
:100EE80020F71430F6148883A88220F507E6A88333
:0C0EF80075830022E280F7E49322E022E0
:100F04009000F5E0FF7E000FBF00010E7410C0E0FA
:100F1400E4C0E08F828E83121024AE821581158185
:100F24009000F6E0FFEEB50701229000F5E0249E64
:100F3400F582E43400F583E599F09000F5EEF022B3
:100F440030024A9000F7E0FF9000F8E0FEEFB506AB
:100F540005A202C202229000F8E024AEF582E43435
:100F640000F583E0F5999000F8E0FF7E000FBF00E4
:100F7400010E7410C0E0E4C0E08F828E831210244E
:0E0F8400AE82AF83158115819000F8EEF02249
:100F92009000F9E0FF7E000FBF00010E7410C0E068
:100FA200E4C0E08F828E83121024AE8215811581F7
:100FB2009000FAE0FFEEB50701229000F9E024BEAE
:100FC200F582E43400F583E5C1F09000F9EEF022F9
:100FD20030034A9000FBE0FF9000FCE0FEEFB50614
:100FE20005A203C203229000FCE024CEF582E43481
:100FF20000F583E0F5C19000FCE0FF7E000FBF002A
:10100200010E7410C0E0E4C0E08F828E83121024BF
:0E101200AE82AF83158115819000FCEEF022B6
:1010200075820022C015858115AE82E583FF33E409
:1010300033FD6009C3E49EFBE49FFC80048E038FB4
:1010400004E51524FCF808E630E70FE51524FCF864
:10105000C3E496FE08E496FF800AE51524FCF886B2
:1010600006088607C005C006C0078B828C83121055
:1010700092AE82AF8315811581D005ED600DC3E47A
:101080009EFCE49FFD8C828D8380048E828F83D0B2
:101090001522C015858115AE82AF837D007C00E5E9
:1010A0001524FCF808E6235401FB702FE51524FCF9
:1010B000F8E626F608E633F6E51524FCF8C3EE96C6
:1010C000EF08965011E51524FCF808E618C313C67E
:1010D00013C608F680050C8C0580C4E51524FCF8C1
:1010E000C3EE96EF0896400DE51524FCF8EEC39686
:1010F000FEEF0896FFE51524FCF808E618C313C6B2
:1011000013C608F68D041DEC70D18E828F83D01526
:0111100022BC
:1011110000000000000000002A2B28000000000051
:1011210000000000000000000000000000000000BE
:101131002C9EB4A0A1A2A434A6A7A5AE362D373803
:10114100271E1F20212223242526B333B62EB7B80C
:101151009F8485868788898A8B8C8D8E8F909192CA
:10116100939495969798999A9B9C9D2F3130A3AD16
:10117100350405060708090A0B0C0D0E0F10111294
:10118100131415161718191A1B1C1DAFB1B0B50091
:10119100120110010000000809125DC500010102E1
:1011A1000301090222000101008064090400000119
:1011B10003010100092110010001224300070581FB
:1011C1000308000A05010906A101050719E029E73D
:1011D10015002501950875018102950175088103A6
:1011E10095067508150025FF0507190029E78100F7
:1011F10005081901290515002501950575019102BB
:10120100950175039103C0040309041403430048C5
:101211000035003500780020006B00620064001684
:10122100034300480035003500780064007500690B
:10123100006E006F000E0344006500710069006ECE
:0312410000670043
:101244000000000000000000000000000000000199
:101254000000000000000000000000000000030483
:101264000000020000000000010101010101010170
:10127400000002020202020202020000030303034E
:10128400030303030000040404040404040400002E
:10129400010204081020408000000102040810200C
:1012A4004080000001020408102040800000010278
:1012B4000408102040800000FFFFFFFFFFFFFFFF36
:1012C400FFFFFF00FFFF0102FFFFFFFFFFFFFFFF24
:1012D400FFFFFFFFFFFFFFFF03FFFFFFFFFFFFFF16
:0512E400030B000000F7
:0912E900000000000000000000FC
:0312F200000100F8
:0212F5000000F7
:0412F700700E700EF7
:0412FB0000000000EF
:0412FF0000000000EB
:00000001FF
